:100000000C943F010C9470010C9470010C947001DD
:100010000C9470010C9470010C9470010C9470019C
:100020000C9470010C9470010C9470010C9470018C
:100030000C9470010C9470010C9470010C9470017C
:100040000C9470010C9470010C9470010C9470016C
:100050000C9470010C9470010C9470010C94530575
:100060000C9470010C9470010C9470010C9470014C
:100070000C9470010C9470010C9470010C9470013C
:100080000C9470010C9470010C9470010C9470012C
:100090000C9470010C9470010C9470010C949D05EB
:1000A0000C9470010C9470010C9470010C9470010C
:1000B0000C9470010C9470010C9470010C947001FC
:1000C0000C9470010C9470010C9470010C947001EC
:1000D0000C9470010C9470010C9470010C947001DC
:1000E0000C9470010C94CE010C9484020C94EE01DB
:1000F0000C940E030C94B9010C94E6010C94560276
:100100000C94E0010C94BD010C94EB020C94C8011A
:100110000C9458040C94FB020C94F4010C94D80138
:100120000C9457020C94DC010C94EA010C94C1016C
:100130000C9442030C9406070C94A7010C94C5017F
:100140000C9415050C9415030C94A2010C94F80161
:100150000C94D2010C9455020C94EC020000210086
:10016000240027002A002D00300033000101000088
:10017000040107010A0100002000230026002900D5
:100180002C002F00320000010000030106010901CC
:1001900000002200250028002B002E003100340032
:1001A00002010000050108010B0105050505070511
:1001B00008080808020202020A0A080804040404E3
:1001C000010101010101010103030303030303030F
:1001D000040707070C0C0C0C0C0C0C0C020202029E
:1001E00006060606060606060B0B0B0B0B0B0B0B87
:1001F0000102102020080810204010204080020139
:10020000020108040201010204081020408080401D
:10021000201008040201800402018040201008041C
:1002200002010804020101020408102040800102BA
:1002300004081020408000000A0B02090C0D0E0873
:10024000070304010000000000000000000000009F
:10025000000000000000000000000000000000009E
:10026000000012111000000000000000000000005B
:10027000000000000000000000000000060711243C
:100280001FBECFEFD1E2DEBFCDBF00E00CBF12E05A
:10029000A0E0B2E0EEEAF4E100E00BBF02C007909C
:1002A0000D92AC34B107D9F723E0ACE4B2E001C061
:1002B0001D92A932B207E1F711E0CFE3D1E000E0EF
:1002C00006C021970109802FFE010E944D0ACE33FE
:1002D000D10780E00807A9F70E9426070C94550A69
:1002E0000C940000282F30E0F901EA5CFD4F949156
:1002F000F901E051FE4F449126553E4FF9012491FA
:10030000222309F435C0992311F191509231F8F468
:10031000E92FF0E08827E057FE4F8F4F0C944D0AED
:10032000C101C501A201B901BD01A701C801CE01EA
:10033000D201D801DC01E001E601EA01A701EE01EA
:10034000F401F801809180008F7780938000E22F84
:10035000F0E0EE0FFF1FE057FE4FA591B4918FB76D
:10036000F894EC91611148C040954E234C938FBF97
:100370000895809180008F7DE8CF80918000877FF5
:10038000E4CF84B58F7784BDE2CF84B58F7DFBCF7A
:100390008091B0008F778093B000D9CF8091B0006A
:1003A0008F7DF9CF809190008F7780939000CFCF91
:1003B000809190008F7DF9CF80919000877FF5CF5D
:1003C0008091A0008F778093A000C1CF8091A00082
:1003D0008F7DF9CF8091A000877FF5CF809120019C
:1003E0008F7780932001B3CF809120018F7DF9CF4B
:1003F00080912001877FF5CF4E2BB8CF3FB7F8947F
:1004000080910D0390910E03A0910F03B091100302
:1004100026B5A89B05C02F3F19F00196A11DB11D5F
:100420003FBFBA2FA92F982F8827BC01CD01620F9B
:10043000711D811D911D42E0660F771F881F991F56
:100440004A95D1F708958F929F92AF92BF92CF9223
:10045000DF92EF92FF924B015C010E94FE016B0163
:100460007C010E94FE016C197D098E099F09683E7E
:10047000734081059105A8F321E0821A9108A10833
:10048000B10888EEC80E83E0D81EE11CF11C81146F
:100490009104A104B10429F7FF90EF90DF90CF9071
:1004A000BF90AF909F908F90089508950895AF9258
:1004B000BF92CF92DF92EF92FF920F931F93CF9351
:1004C000DF936C017B018B01040F151FEB015E01B3
:1004D000AE18BF08C017D10759F06991D601ED9148
:1004E000FC910190F081E02DC6011995892B79F7D7
:1004F000C501DF91CF911F910F91FF90EF90DF9099
:10050000CF90BF90AF900895089520918D02260F4F
:100510003327331F21323105ECF42091D602FC0140
:1005200090E080E0243069F082E00895A0918D028F
:100530002191AC0143595D4FA40FB52FB11D2C93F0
:100540000196861798F380918D02680F60938D0253
:1005500080E0089581E008951092D60281E08093B2
:10056000D5021092B00261E084E10E94720161E064
:1005700085E10E947201E9EBF0E080818E7F80834B
:1005800080818D7F808388E48093B80085E48093A8
:10059000BC000895CF93DF9391E090936C02882381
:1005A000B9F0C091B800D091BA008091BC008A7BAC
:1005B0008093BC0060E084E10E94720160E085E10C
:1005C0000E9472010E94AC02D093BA00C093B8009E
:1005D000DF91CF9108950895E09105038091040380
:1005E000E81730F4F0E0E45BFD4F808190E008957F
:1005F0008FEF9FEF089590910503809104032FEFF3
:100600003FEF981748F4E92FF0E0E45BFD4F2081BD
:1006100030E09F5F90930503C90108958091040322
:1006200090910503891B990B0895CF92DF92EF9269
:10063000FF920F931F93CF93DF937C01CB018A012D
:100640002091DC02222389F0EB016B01C40ED51E40
:10065000CC15DD0569F06991D701ED91FC91019010
:10066000F081E02DC7011995F3CF642F0E94850218
:10067000C801DF91CF911F910F91FF90EF90DF9014
:10068000CF900895CF93DF931F92CDB7DEB76983E4
:100690002091DC022223F9F020910203203258F04D
:1006A00021E030E0FC013383228390E080E00F9072
:1006B000DF91CF91089580910303E82FF0E0E3529A
:1006C000FD4F998190838F5F809303038093020392
:1006D00081E090E0ECCF61E0CE0101960E948502BE
:1006E000F7CFCF92DF92EF92FF920F931F93CF93AA
:1006F000DF93FC01C48121E02093DC02C093FD0262
:1007000010920303109202038385682B81E193E02A
:100710000E944203D0910203D13208F092C00E949D
:10072000FE016B017C018091D602811165C082E0DF
:100730008093D60281E08093D5028FEF8093D4021C
:100740001092D302D093D202ADEDB2E0E2EBF2E030
:1007500080E0D81385C01092B1028091B102CC0F15
:10076000C82BC093B1028091B002813009F07CC0E7
:100770001092B0020E94FE016B017C018091B102D7
:100780008093BB008091D8029091D902A091DA02A7
:10079000B091DB02892B8A2B8B2B99F00E94FE01F2
:1007A0000091D8021091D9022091DA023091DB0237
:1007B0006C197D098E099F09061717072807390745
:1007C000E0F18091BC0083FDD9CF85EC8093BC0023
:1007D0000E94FE016B017C018091D602823009F4F7
:1007E00045C08091D4028F3F61F18091D402803264
:1007F00041F18091D40225C08091D8029091D90214
:10080000A091DA02B091DB02892B8A2B8B2B09F4A1
:100810008ACF0E94FE010091D8021091D902209146
:10082000DA023091DB026C197D098E099F090617E7
:1008300017072807390708F076CF8091D7020E9462
:10084000CA0210920303109202031092DC02DF919D
:10085000CF911F910F91FF90EF90DF90CF9008956F
:100860009D9191938F5F75CF85EEB0CF8091D80227
:100870009091D902A091DA02B091DB02892B8A2BE8
:100880008B2B09F4A9CF0E94FE010091D802109190
:10089000D9022091DA023091DB026C197D098E09B0
:1008A0009F09061717072807390708F095CFC5CF06
:1008B00090E080E008958F929F92AF92BF920F9345
:1008C0001F93CF93DF93CDB7DEB7A1970FB6F89400
:1008D000DEBF0FBECDBF19A2423008F44AE08E0140
:1008E0000F5D1F4F842E912CB12CA12CA5019401DA
:1008F0000E942B0AE62FB901CA01EA3044F5E05DF7
:10090000D801EE938D01232B242B252B79F790E032
:1009100080E0109769F0FD0101900020E9F7319720
:10092000AF014A1B5B0BBD018DE193E00E945702B2
:10093000A1960FB6F894DEBF0FBECDBFDF91CF9169
:100940001F910F91BF90AF909F908F900895E95C99
:10095000D7CFFC0101900020E9F73197AF01481B88
:10096000590BBC018DE193E00C9457020F931F9338
:10097000CF938C01C62F0E9471036C2F6460C80155
:100980000E9471036C2F6B7FC8010E94710383EC7E
:1009900090E00197F1F7CF911F910F9108950F9378
:1009A0001F93CF93DF938C01D62FC42F607F642BCE
:1009B0000E94B60480E1D89FB00111246C2BC801BD
:1009C000DF91CF911F910F910C94B604CF93DF93D9
:1009D00000D000D01F921F92CDB7DEB798E0E0E0C4
:1009E000F2E0DE01119601900D929A95E1F7909157
:1009F0002503981708F48FEF90E0880F991F21E0E6
:100A000030E02C0F3D1F820F931FFC016081606856
:100A100040E08DE193E028960FB6F894DEBF0FBE5C
:100A2000CDBFDF91CF910C94CF0441E00E94CF0461
:100A300081E090E0089585ED8093BC008091D8021C
:100A40009091D902A091DA02B091DB020796A11D24
:100A5000B11D23E0B695A795979587952A95D1F76F
:100A60002091BC0024FD03C01092D602089540914D
:100A7000D8025091D9026091DA027091DB02452BC5
:100A8000462B472B69F30097A105B10541F02AE2F7
:100A90002A95F1F700C00197A109B109E1CF809132
:100AA000D7020C94CA021F920F920FB60F92112414
:100AB0002F933F938F939F93AF93BF93809109039D
:100AC00090910A03A0910B03B0910C03309108039D
:100AD00023E0230F2D3758F50196A11DB11D20935A
:100AE00008038093090390930A03A0930B03B09328
:100AF0000C0380910D0390910E03A0910F03B09110
:100B000010030196A11DB11D80930D0390930E0358
:100B1000A0930F03B0931003BF91AF919F918F915A
:100B20003F912F910F900FBE0F901F90189526E8C0
:100B3000230F0296A11DB11DD2CF1F920F920FB6A7
:100B40000F9211240BB60F922F933F934F935F9305
:100B50006F937F938F939F93AF93BF93EF93FF9385
:100B60008091B900887F803609F44DC008F040C0FC
:100B7000883209F4A9C028F5803109F49DC0C8F471
:100B8000882309F4FBC0883009F496C0FF91EF91E7
:100B9000BF91AF919F918F917F916F915F914F9195
:100BA0003F912F910F900BBE0F900FBE0F901F9093
:100BB0001895883109F488C0803241F78093D402B7
:100BC00014C0803409F49DC040F48033B9F38833F5
:100BD000E9F68093D40285ECB0C0803509F485C075
:100BE000883509F496C0883489F60E941B05CECF5B
:100BF000883909F48CC038F5883729F050F48836E4
:100C000011F0803719F683E08093D6021092AF027C
:100C100057C0883809F47BC0803919F0803809F052
:100C2000B5CF8091AF02803208F071C0E091AF0281
:100C300081E08E0F8093AF028091BB00F0E0E1571E
:100C4000FD4F80833DC0803B39F0E0F4803A09F4E9
:100C500079C0883A09F09ACF84E08093D602109246
:100C60008E0210928D02E0910003F091010319951C
:100C700080918D0281110FC081E080938D021092CE
:100C80006D0209C0803C09F4A6CF883C09F4A3CFCB
:100C9000883B09F07BCFE0918E0281E08E0F80933C
:100CA0008E02F0E0E359FD4F80818093BB0090916C
:100CB0008E0280918D0229C08091B1028093BB0089
:100CC00085EC8093BC0062CF9091D3028091D202D8
:100CD000981758F5E091D30281E08E0F8093D302EC
:100CE000F0E0EE54FD4F8081E9CFE091D30281E046
:100CF0008E0F8093D3028091BB00F0E0EE54FD4F45
:100D000080839091D3028091D2029817C8F285E82F
:100D1000D8CFE091D30281E08E0F8093D3028091EF
:100D2000BB00F0E0EE54FD4F80838091D50281112D
:100D30005CCF81E08093B00284EA8093BC00109283
:100D4000D60224CF85EC8093BC001092D60280910D
:100D5000AF02803230F4E091AF02F0E0E157FD4F96
:100D600010826091AF0270E0E091FE02F091FF020C
:100D70008FE892E019951092AF0208CF1092D4023A
:100D800034CFCF92DF92EF92FF920F931F93E82F11
:100D9000F92F05C0015011092109310961F1908134
:100DA00096239417B9F305C001501109210931099F
:100DB00011F1908196239413F7CFC12CD12CE12C03
:100DC000F12C0AC08FEFC81AD80AE80AF80A0C15E5
:100DD0001D052E053F0579F080818623841791F348
:100DE0006C2D7D2D8E2D9F2D1F910F91FF90EF90DB
:100DF000DF90CF90089560E070E080E090E01F9178
:100E00000F91FF90EF90DF90CF900895E1E1F3E034
:100E10001382128288EE93E0A0E0B0E08483958391
:100E2000A683B7838CE092E091838083EDE1F3E0C9
:100E3000138212828EE192E09183808387E2848321
:100E400080E1818782E0828713860895789484B553
:100E5000826084BD84B5816084BD85B5826085BDB6
:100E600085B5816085BD80916E00816080936E0044
:100E70001092810080918100826080938100809136
:100E800081008160809381008091800081608093E7
:100E900080008091B10084608093B1008091B000A7
:100EA00081608093B0008091910082608093910076
:100EB0008091910081608093910080919000816089
:100EC000809390008091A10082608093A100809126
:100ED000A10081608093A1008091A0008160809337
:100EE000A0008091210182608093210180912101E5
:100EF0008160809321018091200181608093200195
:100F000080917A00846080937A0080917A00826078
:100F100080937A0080917A00816080937A0080913A
:100F20007A00806880937A001092C100E6EFF1E0C9
:100F30002491E0EBF1E08491882399F090E0880F10
:100F4000991FFC01E45AFE4FA591B491FC01E057B2
:100F5000FE4F859194918FB7F894EC91E22BEC932E
:100F60008FBFC7EFD1E0FE01249151EBE52E51E098
:100F7000F52EF70184918823C9F090E0880F991F1E
:100F8000FC01E45AFE4FA591B491FC01E057FE4FDD
:100F9000459154913FB7F8949C91822F8095982366
:100FA0009C93FA019081892380833FBF10920503AF
:100FB0001092040310920303109202030E94AC02E9
:100FC00085E592E0909301038093000386E592E02B
:100FD0009093FF028093FE021092220380912703D8
:100FE000823018F098E0909322038093250362E307
:100FF00070E080E090E00E942302609128038DE180
:1010000093E00E94710368EE73E080E090E00E943C
:10101000230260E38DE193E00E94B6040BE416E442
:10102000C8010197F1F760E38DE193E00E94B604F7
:10103000C8010197F1F760E38DE193E00E94B604E7
:1010400083E592E00197F1F760E28DE193E00E9481
:10105000B60460912203606240E08DE193E00E945B
:10106000CF0484E08093230340E06CE08DE193E0C3
:101070000E94CF0440E061E08DE193E00E94CF0444
:101080000BE31FE1C8010197F1F782E0809324038D
:1010900040E066E08DE193E00E94CF0440E062E032
:1010A0008DE193E00E94CF04C8010197F1F788E039
:1010B0008093280360E08DE193E00E94710380E05B
:1010C0000E94E60486E292E00E94A90460ED77E0C7
:1010D00080E090E00E94230240E061E08DE193E037
:1010E0000E94CF04C8010197F1F793E0C92ED12CDB
:1010F00023E2A22EB12C30E0832E30E0932E60E06C
:1011000086E00E947201C6010197F1F761E086E076
:101110000E947201C5010197F1F760E086E00E942C
:101120007201FE016491F7018491E82FF0E0EE0F67
:10113000FF1FEA58FE4F8591949100E412E42FE0DE
:1011400030E0462F0E94C1066115710581059105A9
:1011500029F06F5F7F4F8F4F9F4F9F700E94320922
:1011600026E933E44BE05DE30E94960920E030E09D
:1011700040E05FE30E9496090E94FA08709307031B
:101180006093060380E00E94E60485E392E00E94FB
:10119000A90481E00E94E6044090060350900703F2
:1011A000052C000C660877084AE0C301B20177FEFF
:1011B0000EC041E06DE28DE193E00E94CF0466270E
:1011C0007727CB0164197509860997094AE00E94BF
:1011D0005B0482E492E00E94A90464EF71E080E085
:1011E00090E00E9423028114910409F488CF0E94A8
:1011F000000085CF0E9401096894B1110C949009F8
:1012000008950E94750988F09F5798F0B92F992783
:10121000B751B0F0E1F0660F771F881F991F1AF0E1
:10122000BA95C9F714C0B13091F00E948F09B1E0AE
:1012300008950C948F09672F782F8827B85F39F0AD
:10124000B93FCCF3869577956795B395D9F73EF47A
:1012500090958095709561957F4F8F4F9F4F089522
:10126000E89409C097FB3EF4909580957095619540
:101270007F4F8F4F9F4F9923A9F0F92F96E9BB27F6
:101280009395F695879577956795B795F111F8CF72
:10129000FAF4BB0F11F460FF1BC06F5F7F4F8F4FDD
:1012A0009F4F16C0882311F096E911C0772321F0D3
:1012B0009EE8872F762F05C0662371F096E8862F6B
:1012C00070E060E02AF09A95660F771F881FDAF7C2
:1012D000880F9695879597F9089557FD9058440F74
:1012E000551F59F05F3F71F04795880F97FB991F85
:1012F00061F09F3F79F08795089512161306140642
:10130000551FF2CF4695F1DF08C0161617061806CE
:10131000991FF1CF86957105610508940895E894A9
:10132000BB2766277727CB0197F908950E94A90963
:101330000C941A0A0E940C0A38F00E94130A20F03A
:10134000952311F00C94030A0C94090A11240C94AF
:1013500090090E946D0970F3959FC1F3950F50E0BD
:10136000551F629FF001729FBB27F00DB11D639F57
:10137000AA27F00DB11DAA1F649F6627B00DA11DFD
:10138000661F829F2227B00DA11D621F739FB00DA3
:10139000A11D621F839FA00D611D221F749F332713
:1013A000A00D611D231F849F600D211D822F762FAC
:1013B0006A2F11249F5750409AF0F1F088234AF089
:1013C000EE0FFF1FBB1F661F771F881F91505040F5
:1013D000A9F79E3F510580F00C94030A0C949009E4
:1013E0005F3FE4F3983ED4F3869577956795B7957C
:1013F000F795E7959F5FC1F7FE2B880F911D969596
:10140000879597F9089597F99F6780E870E060E005
:1014100008959FEF80EC089500240A94161617068D
:1014200018060906089500240A94121613061406D5
:1014300005060895092E0394000C11F4882352F038
:10144000BB0F40F4BF2B11F460FF04C06F5F7F4FF0
:101450008F4F9F4F0895A1E21A2EAA1BBB1BFD01BF
:101460000DC0AA1FBB1FEE1FFF1FA217B307E40783
:10147000F50720F0A21BB30BE40BF50B661F771FDB
:10148000881F991F1A9469F76095709580959095BB
:101490009B01AC01BD01CF010895EE0FFF1F881F16
:0E14A0008BBF0790F691E02D1994F894FFCFC2
:1014AE000000400014005400000000004203150329
:1014BE005804EB020E03FB02EC02000000001505BF
:1014CE00570258048402444F204B484F414E472048
:1014DE0043414348004B686F616E672063616368E8
:0C14EE003A0020636D2020202020000028
:00000001FF
